{
  "_format": "hh-sol-artifact-1",
  "contractName": "OrderSwap",
  "sourceName": "contracts/OrderSwap.sol",
  "abi": [
    {
      "inputs": [],
      "name": "AddressZeroDetected",
      "type": "error"
    },
    {
      "inputs": [],
      "name": "InsufficientFunds",
      "type": "error"
    },
    {
      "inputs": [],
      "name": "ReentrancyGuardReentrantCall",
      "type": "error"
    },
    {
      "inputs": [],
      "name": "ZeroValueNotAllowed",
      "type": "error"
    },
    {
      "anonymous": false,
      "inputs": [
        {
          "indexed": false,
          "internalType": "address",
          "name": "depositor",
          "type": "address"
        },
        {
          "indexed": false,
          "internalType": "uint256",
          "name": "orderId",
          "type": "uint256"
        }
      ],
      "name": "OrderCancelled",
      "type": "event"
    },
    {
      "anonymous": false,
      "inputs": [
        {
          "indexed": true,
          "internalType": "address",
          "name": "depositor",
          "type": "address"
        },
        {
          "indexed": true,
          "internalType": "address",
          "name": "tokenDeposit",
          "type": "address"
        },
        {
          "indexed": true,
          "internalType": "uint256",
          "name": "amountDeposit",
          "type": "uint256"
        },
        {
          "indexed": false,
          "internalType": "address",
          "name": "tokenRequest",
          "type": "address"
        },
        {
          "indexed": false,
          "internalType": "uint256",
          "name": "amountRequest",
          "type": "uint256"
        }
      ],
      "name": "OrderCreationSuccessful",
      "type": "event"
    },
    {
      "anonymous": false,
      "inputs": [
        {
          "indexed": true,
          "internalType": "address",
          "name": "purchaser",
          "type": "address"
        },
        {
          "indexed": true,
          "internalType": "uint256",
          "name": "orderId",
          "type": "uint256"
        },
        {
          "indexed": true,
          "internalType": "address",
          "name": "tokenPurchased",
          "type": "address"
        },
        {
          "indexed": false,
          "internalType": "uint256",
          "name": "amountPurchased",
          "type": "uint256"
        }
      ],
      "name": "OrderFulfilmentSuccessful",
      "type": "event"
    },
    {
      "inputs": [
        {
          "internalType": "uint256",
          "name": "_orderId",
          "type": "uint256"
        }
      ],
      "name": "cancelOrder",
      "outputs": [],
      "stateMutability": "nonpayable",
      "type": "function"
    },
    {
      "inputs": [
        {
          "internalType": "address",
          "name": "_tokenDeposit",
          "type": "address"
        },
        {
          "internalType": "uint256",
          "name": "_amountDeposit",
          "type": "uint256"
        },
        {
          "internalType": "address",
          "name": "_tokenRequest",
          "type": "address"
        },
        {
          "internalType": "uint256",
          "name": "_amountRequest",
          "type": "uint256"
        }
      ],
      "name": "createOrder",
      "outputs": [],
      "stateMutability": "nonpayable",
      "type": "function"
    },
    {
      "inputs": [
        {
          "internalType": "uint256",
          "name": "_orderId",
          "type": "uint256"
        },
        {
          "internalType": "uint256",
          "name": "_fulfillAmount",
          "type": "uint256"
        }
      ],
      "name": "fulfillOrder",
      "outputs": [],
      "stateMutability": "nonpayable",
      "type": "function"
    }
  ],
  "bytecode": "0x608060405234801561001057600080fd5b506001600081905550611284806100286000396000f3fe608060405234801561001057600080fd5b50600436106100415760003560e01c8063514fcac714610046578063b9c7d48014610062578063fc05ca311461007e575b600080fd5b610060600480360381019061005b9190610cc5565b61009a565b005b61007c60048036038101906100779190610cf2565b61033b565b005b61009860048036038101906100939190610d90565b6107ca565b005b6100a2610c3a565b600081116100e5576040517f08c379a00000000000000000000000000000000000000000000000000000000081526004016100dc90610e54565b60405180910390fd5b60006002600083815260200190815260200160002090508060060160009054906101000a900460ff161561014e576040517f08c379a000000000000000000000000000000000000000000000000000000000815260040161014590610ec0565b60405180910390fd5b8060040160009054906101000a900473ffffffffffffffffffffffffffffffffffffffff1673ffffffffffffffffffffffffffffffffffffffff163373ffffffffffffffffffffffffffffffffffffffff16146101e0576040517f08c379a00000000000000000000000000000000000000000000000000000000081526004016101d790610f2c565b60405180910390fd5b8060060160019054906101000a900460ff1615610232576040517f08c379a000000000000000000000000000000000000000000000000000000000815260040161022990610f98565b60405180910390fd5b60018160060160016101000a81548160ff0219169083151502179055508060000160009054906101000a900473ffffffffffffffffffffffffffffffffffffffff1673ffffffffffffffffffffffffffffffffffffffff1663a9059cbb3383600101546040518363ffffffff1660e01b81526004016102b2929190610fd6565b6020604051808303816000875af11580156102d1573d6000803e3d6000fd5b505050506040513d601f19601f820116820180604052508101906102f59190611037565b507fdd003742fb214507783ce004fe55f5ac14f89c6de4a7cd7487e47eb091c622653383604051610327929190610fd6565b60405180910390a150610338610c80565b50565b610343610c3a565b60008211610386576040517f08c379a000000000000000000000000000000000000000000000000000000000815260040161037d90610e54565b60405180910390fd5b600081116103c0576040517f9cf8540c00000000000000000000000000000000000000000000000000000000815260040160405180910390fd5b60006002600084815260200190815260200160002090508060060160009054906101000a900460ff1615610429576040517f08c379a000000000000000000000000000000000000000000000000000000000815260040161042090610ec0565b60405180910390fd5b8181600301541461046f576040517f08c379a0000000000000000000000000000000000000000000000000000000008152600401610466906110b0565b60405180910390fd5b8060060160019054906101000a900460ff16156104c1576040517f08c379a00000000000000000000000000000000000000000000000000000000081526004016104b89061111c565b60405180910390fd5b60008160020160009054906101000a900473ffffffffffffffffffffffffffffffffffffffff1673ffffffffffffffffffffffffffffffffffffffff166370a08231336040518263ffffffff1660e01b8152600401610520919061113c565b602060405180830381865afa15801561053d573d6000803e3d6000fd5b505050506040513d601f19601f82011682018060405250810190610561919061116c565b90508281101561059d576040517f356680b700000000000000000000000000000000000000000000000000000000815260040160405180910390fd5b60018260060160006101000a81548160ff0219169083151502179055508160020160009054906101000a900473ffffffffffffffffffffffffffffffffffffffff1673ffffffffffffffffffffffffffffffffffffffff166323b872dd338460040160009054906101000a900473ffffffffffffffffffffffffffffffffffffffff1685600301546040518463ffffffff1660e01b815260040161064393929190611199565b6020604051808303816000875af1158015610662573d6000803e3d6000fd5b505050506040513d601f19601f820116820180604052508101906106869190611037565b508160000160009054906101000a900473ffffffffffffffffffffffffffffffffffffffff1673ffffffffffffffffffffffffffffffffffffffff1663a9059cbb3384600101546040518363ffffffff1660e01b81526004016106ea929190610fd6565b6020604051808303816000875af1158015610709573d6000803e3d6000fd5b505050506040513d601f19601f8201168201806040525081019061072d9190611037565b508160000160009054906101000a900473ffffffffffffffffffffffffffffffffffffffff1673ffffffffffffffffffffffffffffffffffffffff16843373ffffffffffffffffffffffffffffffffffffffff167feb5d4dbf15e2b82ba21a54cbc44d9a78bd270a690bf012d2e725fc99ddae839f85600101546040516107b491906111d0565b60405180910390a450506107c6610c80565b5050565b6107d2610c3a565b600073ffffffffffffffffffffffffffffffffffffffff163373ffffffffffffffffffffffffffffffffffffffff1603610838576040517f287170f900000000000000000000000000000000000000000000000000000000815260040160405180910390fd5b600073ffffffffffffffffffffffffffffffffffffffff168473ffffffffffffffffffffffffffffffffffffffff160361089e576040517f287170f900000000000000000000000000000000000000000000000000000000815260040160405180910390fd5b600073ffffffffffffffffffffffffffffffffffffffff168273ffffffffffffffffffffffffffffffffffffffff1603610904576040517f287170f900000000000000000000000000000000000000000000000000000000815260040160405180910390fd5b6000831161093e576040517f9cf8540c00000000000000000000000000000000000000000000000000000000815260040160405180910390fd5b60008111610978576040517f9cf8540c00000000000000000000000000000000000000000000000000000000815260040160405180910390fd5b60008473ffffffffffffffffffffffffffffffffffffffff166370a08231336040518263ffffffff1660e01b81526004016109b3919061113c565b602060405180830381865afa1580156109d0573d6000803e3d6000fd5b505050506040513d601f19601f820116820180604052508101906109f4919061116c565b905083811015610a30576040517f356680b700000000000000000000000000000000000000000000000000000000815260040160405180910390fd5b60018054610a3e919061121a565b60018190555060006002600060015481526020019081526020016000209050858160000160006101000a81548173ffffffffffffffffffffffffffffffffffffffff021916908373ffffffffffffffffffffffffffffffffffffffff160217905550848160010181905550838160020160006101000a81548173ffffffffffffffffffffffffffffffffffffffff021916908373ffffffffffffffffffffffffffffffffffffffff160217905550828160030181905550338160040160006101000a81548173ffffffffffffffffffffffffffffffffffffffff021916908373ffffffffffffffffffffffffffffffffffffffff1602179055504281600501819055508573ffffffffffffffffffffffffffffffffffffffff166323b872dd3330886040518463ffffffff1660e01b8152600401610b7e93929190611199565b6020604051808303816000875af1158015610b9d573d6000803e3d6000fd5b505050506040513d601f19601f82011682018060405250810190610bc19190611037565b50848673ffffffffffffffffffffffffffffffffffffffff163373ffffffffffffffffffffffffffffffffffffffff167fa07a2ddf81ee937256ee8eb25280338e2029959a1b9e514fe42c9525f9c989eb8787604051610c22929190610fd6565b60405180910390a45050610c34610c80565b50505050565b600260005403610c76576040517f3ee5aeb500000000000000000000000000000000000000000000000000000000815260040160405180910390fd5b6002600081905550565b6001600081905550565b600080fd5b6000819050919050565b610ca281610c8f565b8114610cad57600080fd5b50565b600081359050610cbf81610c99565b92915050565b600060208284031215610cdb57610cda610c8a565b5b6000610ce984828501610cb0565b91505092915050565b60008060408385031215610d0957610d08610c8a565b5b6000610d1785828601610cb0565b9250506020610d2885828601610cb0565b9150509250929050565b600073ffffffffffffffffffffffffffffffffffffffff82169050919050565b6000610d5d82610d32565b9050919050565b610d6d81610d52565b8114610d7857600080fd5b50565b600081359050610d8a81610d64565b92915050565b60008060008060808587031215610daa57610da9610c8a565b5b6000610db887828801610d7b565b9450506020610dc987828801610cb0565b9350506040610dda87828801610d7b565b9250506060610deb87828801610cb0565b91505092959194509250565b600082825260208201905092915050565b7f496e76616c696420494400000000000000000000000000000000000000000000600082015250565b6000610e3e600a83610df7565b9150610e4982610e08565b602082019050919050565b60006020820190508181036000830152610e6d81610e31565b9050919050565b7f4f726465722066756c66696c6c65640000000000000000000000000000000000600082015250565b6000610eaa600f83610df7565b9150610eb582610e74565b602082019050919050565b60006020820190508181036000830152610ed981610e9d565b9050919050565b7f496e76616c6964206465706f7369746f72000000000000000000000000000000600082015250565b6000610f16601183610df7565b9150610f2182610ee0565b602082019050919050565b60006020820190508181036000830152610f4581610f09565b9050919050565b7f416c72656164792063616e63656c6c6564000000000000000000000000000000600082015250565b6000610f82601183610df7565b9150610f8d82610f4c565b602082019050919050565b60006020820190508181036000830152610fb181610f75565b9050919050565b610fc181610d52565b82525050565b610fd081610c8f565b82525050565b6000604082019050610feb6000830185610fb8565b610ff86020830184610fc7565b9392505050565b60008115159050919050565b61101481610fff565b811461101f57600080fd5b50565b6000815190506110318161100b565b92915050565b60006020828403121561104d5761104c610c8a565b5b600061105b84828501611022565b91505092915050565b7f496e76616c69642066756c66696c6d656e7420616d6f756e7400000000000000600082015250565b600061109a601983610df7565b91506110a582611064565b602082019050919050565b600060208201905081810360008301526110c98161108d565b9050919050565b7f4f726465722063616e63656c6c65640000000000000000000000000000000000600082015250565b6000611106600f83610df7565b9150611111826110d0565b602082019050919050565b60006020820190508181036000830152611135816110f9565b9050919050565b60006020820190506111516000830184610fb8565b92915050565b60008151905061116681610c99565b92915050565b60006020828403121561118257611181610c8a565b5b600061119084828501611157565b91505092915050565b60006060820190506111ae6000830186610fb8565b6111bb6020830185610fb8565b6111c86040830184610fc7565b949350505050565b60006020820190506111e56000830184610fc7565b92915050565b7f4e487b7100000000000000000000000000000000000000000000000000000000600052601160045260246000fd5b600061122582610c8f565b915061123083610c8f565b9250828201905080821115611248576112476111eb565b5b9291505056fea2646970667358221220abbaa6b8ab8ee64248c5910a8655f30c1433dcc5c06b88dbfcc4bef3d936e4b064736f6c63430008180033",
  "linkReferences": {},
  "deployedLinkReferences": {}
}